{
  "_format": "hh-sol-artifact-1",
  "contractName": "SovSealRecovery",
  "sourceName": "src/SovSealRecovery.sol",
  "abi": [
    {
      "inputs": [],
      "name": "GuardianAlreadyExists",
      "type": "error"
    },
    {
      "inputs": [],
      "name": "GuardianNotFound",
      "type": "error"
    },
    {
      "inputs": [],
      "name": "InvalidAddress",
      "type": "error"
    },
    {
      "inputs": [],
      "name": "InvalidThreshold",
      "type": "error"
    },
    {
      "inputs": [],
      "name": "MaxGuardiansReached",
      "type": "error"
    },
    {
      "inputs": [],
      "name": "NoActiveRecovery",
      "type": "error"
    },
    {
      "inputs": [],
      "name": "NotGuardian",
      "type": "error"
    },
    {
      "inputs": [],
      "name": "NotOwner",
      "type": "error"
    },
    {
      "inputs": [],
      "name": "RecoveryAlreadyActive",
      "type": "error"
    },
    {
      "inputs": [],
      "name": "RecoveryAlreadyApproved",
      "type": "error"
    },
    {
      "inputs": [],
      "name": "RecoveryAlreadyCancelled",
      "type": "error"
    },
    {
      "inputs": [],
      "name": "RecoveryAlreadyExecuted",
      "type": "error"
    },
    {
      "inputs": [],
      "name": "RecoveryNotReady",
      "type": "error"
    },
    {
      "inputs": [],
      "name": "ThresholdNotMet",
      "type": "error"
    },
    {
      "inputs": [],
      "name": "TimeLockNotExpired",
      "type": "error"
    },
    {
      "anonymous": false,
      "inputs": [
        {
          "indexed": true,
          "internalType": "address",
          "name": "owner",
          "type": "address"
        },
        {
          "indexed": true,
          "internalType": "address",
          "name": "guardian",
          "type": "address"
        },
        {
          "indexed": false,
          "internalType": "uint256",
          "name": "weight",
          "type": "uint256"
        }
      ],
      "name": "GuardianAdded",
      "type": "event"
    },
    {
      "anonymous": false,
      "inputs": [
        {
          "indexed": true,
          "internalType": "address",
          "name": "owner",
          "type": "address"
        },
        {
          "indexed": true,
          "internalType": "address",
          "name": "guardian",
          "type": "address"
        }
      ],
      "name": "GuardianRemoved",
      "type": "event"
    },
    {
      "anonymous": false,
      "inputs": [
        {
          "indexed": true,
          "internalType": "uint256",
          "name": "requestId",
          "type": "uint256"
        },
        {
          "indexed": true,
          "internalType": "address",
          "name": "guardian",
          "type": "address"
        },
        {
          "indexed": false,
          "internalType": "uint256",
          "name": "currentWeight",
          "type": "uint256"
        },
        {
          "indexed": false,
          "internalType": "uint256",
          "name": "threshold",
          "type": "uint256"
        }
      ],
      "name": "RecoveryApproved",
      "type": "event"
    },
    {
      "anonymous": false,
      "inputs": [
        {
          "indexed": true,
          "internalType": "uint256",
          "name": "requestId",
          "type": "uint256"
        },
        {
          "indexed": false,
          "internalType": "address",
          "name": "cancelledBy",
          "type": "address"
        }
      ],
      "name": "RecoveryCancelled",
      "type": "event"
    },
    {
      "anonymous": false,
      "inputs": [
        {
          "indexed": true,
          "internalType": "uint256",
          "name": "requestId",
          "type": "uint256"
        },
        {
          "indexed": true,
          "internalType": "address",
          "name": "oldOwner",
          "type": "address"
        },
        {
          "indexed": true,
          "internalType": "address",
          "name": "newOwner",
          "type": "address"
        }
      ],
      "name": "RecoveryExecuted",
      "type": "event"
    },
    {
      "anonymous": false,
      "inputs": [
        {
          "indexed": true,
          "internalType": "uint256",
          "name": "requestId",
          "type": "uint256"
        },
        {
          "indexed": true,
          "internalType": "address",
          "name": "owner",
          "type": "address"
        },
        {
          "indexed": true,
          "internalType": "address",
          "name": "newOwner",
          "type": "address"
        },
        {
          "indexed": false,
          "internalType": "uint256",
          "name": "executeAfter",
          "type": "uint256"
        }
      ],
      "name": "RecoveryInitiated",
      "type": "event"
    },
    {
      "anonymous": false,
      "inputs": [
        {
          "indexed": true,
          "internalType": "address",
          "name": "owner",
          "type": "address"
        },
        {
          "indexed": false,
          "internalType": "uint256",
          "name": "newThreshold",
          "type": "uint256"
        }
      ],
      "name": "ThresholdUpdated",
      "type": "event"
    },
    {
      "inputs": [],
      "name": "MAX_GUARDIANS",
      "outputs": [
        {
          "internalType": "uint256",
          "name": "",
          "type": "uint256"
        }
      ],
      "stateMutability": "view",
      "type": "function"
    },
    {
      "inputs": [],
      "name": "MIN_THRESHOLD",
      "outputs": [
        {
          "internalType": "uint256",
          "name": "",
          "type": "uint256"
        }
      ],
      "stateMutability": "view",
      "type": "function"
    },
    {
      "inputs": [],
      "name": "RECOVERY_DELAY",
      "outputs": [
        {
          "internalType": "uint256",
          "name": "",
          "type": "uint256"
        }
      ],
      "stateMutability": "view",
      "type": "function"
    },
    {
      "inputs": [
        {
          "internalType": "address",
          "name": "",
          "type": "address"
        }
      ],
      "name": "activeRecovery",
      "outputs": [
        {
          "internalType": "uint256",
          "name": "",
          "type": "uint256"
        }
      ],
      "stateMutability": "view",
      "type": "function"
    },
    {
      "inputs": [
        {
          "internalType": "address",
          "name": "guardian",
          "type": "address"
        },
        {
          "internalType": "uint256",
          "name": "weight",
          "type": "uint256"
        }
      ],
      "name": "addGuardian",
      "outputs": [],
      "stateMutability": "nonpayable",
      "type": "function"
    },
    {
      "inputs": [
        {
          "internalType": "uint256",
          "name": "requestId",
          "type": "uint256"
        }
      ],
      "name": "approveRecovery",
      "outputs": [],
      "stateMutability": "nonpayable",
      "type": "function"
    },
    {
      "inputs": [
        {
          "internalType": "uint256",
          "name": "requestId",
          "type": "uint256"
        }
      ],
      "name": "cancelRecovery",
      "outputs": [],
      "stateMutability": "nonpayable",
      "type": "function"
    },
    {
      "inputs": [
        {
          "internalType": "uint256",
          "name": "requestId",
          "type": "uint256"
        }
      ],
      "name": "executeRecovery",
      "outputs": [],
      "stateMutability": "nonpayable",
      "type": "function"
    },
    {
      "inputs": [
        {
          "internalType": "address",
          "name": "owner",
          "type": "address"
        }
      ],
      "name": "getGuardians",
      "outputs": [
        {
          "components": [
            {
              "internalType": "address",
              "name": "addr",
              "type": "address"
            },
            {
              "internalType": "uint256",
              "name": "weight",
              "type": "uint256"
            },
            {
              "internalType": "bool",
              "name": "isActive",
              "type": "bool"
            }
          ],
          "internalType": "struct SovSealRecovery.Guardian[]",
          "name": "",
          "type": "tuple[]"
        }
      ],
      "stateMutability": "view",
      "type": "function"
    },
    {
      "inputs": [
        {
          "internalType": "uint256",
          "name": "requestId",
          "type": "uint256"
        }
      ],
      "name": "getRecoveryRequest",
      "outputs": [
        {
          "internalType": "address",
          "name": "owner",
          "type": "address"
        },
        {
          "internalType": "address",
          "name": "newOwner",
          "type": "address"
        },
        {
          "internalType": "uint256",
          "name": "threshold",
          "type": "uint256"
        },
        {
          "internalType": "uint256",
          "name": "approvalWeight",
          "type": "uint256"
        },
        {
          "internalType": "uint256",
          "name": "initiatedAt",
          "type": "uint256"
        },
        {
          "internalType": "uint256",
          "name": "executeAfter",
          "type": "uint256"
        },
        {
          "internalType": "bool",
          "name": "executed",
          "type": "bool"
        },
        {
          "internalType": "bool",
          "name": "cancelled",
          "type": "bool"
        }
      ],
      "stateMutability": "view",
      "type": "function"
    },
    {
      "inputs": [
        {
          "internalType": "address",
          "name": "",
          "type": "address"
        },
        {
          "internalType": "uint256",
          "name": "",
          "type": "uint256"
        }
      ],
      "name": "guardians",
      "outputs": [
        {
          "internalType": "address",
          "name": "addr",
          "type": "address"
        },
        {
          "internalType": "uint256",
          "name": "weight",
          "type": "uint256"
        },
        {
          "internalType": "bool",
          "name": "isActive",
          "type": "bool"
        }
      ],
      "stateMutability": "view",
      "type": "function"
    },
    {
      "inputs": [
        {
          "internalType": "address",
          "name": "owner",
          "type": "address"
        },
        {
          "internalType": "address",
          "name": "newOwner",
          "type": "address"
        }
      ],
      "name": "initiateRecovery",
      "outputs": [
        {
          "internalType": "uint256",
          "name": "requestId",
          "type": "uint256"
        }
      ],
      "stateMutability": "nonpayable",
      "type": "function"
    },
    {
      "inputs": [],
      "name": "recoveryCount",
      "outputs": [
        {
          "internalType": "uint256",
          "name": "",
          "type": "uint256"
        }
      ],
      "stateMutability": "view",
      "type": "function"
    },
    {
      "inputs": [
        {
          "internalType": "address",
          "name": "guardian",
          "type": "address"
        }
      ],
      "name": "removeGuardian",
      "outputs": [],
      "stateMutability": "nonpayable",
      "type": "function"
    },
    {
      "inputs": [
        {
          "internalType": "uint256",
          "name": "newThreshold",
          "type": "uint256"
        }
      ],
      "name": "setThreshold",
      "outputs": [],
      "stateMutability": "nonpayable",
      "type": "function"
    },
    {
      "inputs": [
        {
          "internalType": "address",
          "name": "",
          "type": "address"
        }
      ],
      "name": "thresholds",
      "outputs": [
        {
          "internalType": "uint256",
          "name": "",
          "type": "uint256"
        }
      ],
      "stateMutability": "view",
      "type": "function"
    }
  ],
  "bytecode": "0x608060405234801561001057600080fd5b5061140c806100206000396000f3fe608060405234801561001057600080fd5b50600436106101005760003560e01c806356570571116100975780639df5f6bd116100665780639df5f6bd146102b1578063a52d92cf146102d1578063bd11c4c0146102e4578063f18858ab146102ec57600080fd5b806356570571146101c85780636a1ce003146101db578063714041561461028b578063960bfe041461029e57600080fd5b806327a61198116100d357806327a611981461015c578063422c1d371461017c57806347b456521461018457806347d05bf81461018e57600080fd5b8063010a623c1461010557806310de267614610121578063111e531314610136578063113647bb14610149575b600080fd5b61010e60035481565b6040519081526020015b60405180910390f35b61013461012f366004611250565b61030c565b005b610134610144366004611285565b610444565b610134610157366004611250565b610645565b61010e61016a3660046112af565b60046020526000908152604090205481565b61010e600a81565b61010e62093a8081565b6101a161019c366004611285565b6107cf565b604080516001600160a01b0390941684526020840192909252151590820152606001610118565b6101346101d6366004611250565b61081e565b6102416101e9366004611250565b600090815260026020819052604090912080546001820154928201546003830154600484015460058501546006909501546001600160a01b0394851697949096169592949193909260ff808216926101009092041690565b604080516001600160a01b03998a168152989097166020890152958701949094526060860192909252608085015260a0840152151560c0830152151560e082015261010001610118565b6101346102993660046112af565b610a85565b6101346102ac366004611250565b610bb8565b61010e6102bf3660046112af565b60016020526000908152604090205481565b61010e6102df3660046112d1565b610c58565b61010e600281565b6102ff6102fa3660046112af565b610e6b565b6040516101189190611304565b600081815260026020526040902080546001600160a01b031661034157604051628267d160e81b815260040160405180910390fd5b600681015460ff161561036757604051631e38cf7760e11b815260040160405180910390fd5b6006810154610100900460ff161561039257604051632710ca0d60e21b815260040160405180910390fd5b80546001600160a01b031633818114916000916103af9190611029565b9050811580156103bd575080155b156103db576040516377b6878160e11b815260040160405180910390fd5b60068301805461ff00191661010017905582546001600160a01b0316600090815260046020908152604080832092909255905133815285917f33ddda278c137c6fa31b79fc821f65dc0a1fb04b37c61f93d93f3c688c2db609910160405180910390a250505050565b816001600160a01b03811661046c5760405163e6c4247b60e01b815260040160405180910390fd5b336001600160a01b038416036104955760405163e6c4247b60e01b815260040160405180910390fd5b33600090815260208190526040902054600a116104c557604051636fe1a40d60e11b815260040160405180910390fd5b816000036104e65760405163aabd5a0960e01b815260040160405180910390fd5b336000908152602081905260408120905b815481101561059857846001600160a01b031682828154811061051c5761051c611368565b60009182526020909120600390910201546001600160a01b0316148015610568575081818154811061055057610550611368565b600091825260209091206002600390920201015460ff165b156105865760405163fecca77f60e01b815260040160405180910390fd5b8061059081611394565b9150506104f7565b50604080516060810182526001600160a01b038681168083526020808401888152600185870181815288548083018a5560008a81528590209751600390910290970180546001600160a01b0319169790961696909617855590519084015592516002909201805460ff191692151592909217909155915185815233917f6d0391926fd0fcb9e582cc3f9b1d2302bfd0866212cc067d5b137352a23a41bc910160405180910390a350505050565b600081815260026020526040902080546001600160a01b031661067a57604051628267d160e81b815260040160405180910390fd5b600681015460ff16156106a057604051631e38cf7760e11b815260040160405180910390fd5b6006810154610100900460ff16156106cb57604051632710ca0d60e21b815260040160405180910390fd5b33600090815260078201602052604090205460ff16156106fe5760405163352a1ef760e11b815260040160405180910390fd5b8054610713906001600160a01b031633611029565b610730576040516377b6878160e11b815260040160405180910390fd5b8054600090610748906001600160a01b0316336110e3565b3360009081526007840160205260408120805460ff19166001179055600384018054929350839290919061077d9084906113ad565b909155505060038201546002830154604080519283526020830191909152339185917f23eac6b9a9a9e5dd683b42ad6771b932d73b7653b9e4257127f37f3e017375aa910160405180910390a3505050565b600060205281600052604060002081815481106107eb57600080fd5b60009182526020909120600390910201805460018201546002909201546001600160a01b03909116935090915060ff1683565b600081815260026020526040902080546001600160a01b031661085357604051628267d160e81b815260040160405180910390fd5b600681015460ff161561087957604051631e38cf7760e11b815260040160405180910390fd5b6006810154610100900460ff16156108a457604051632710ca0d60e21b815260040160405180910390fd5b80600501544210156108c95760405163191f4d1b60e31b815260040160405180910390fd5b8060020154816003015410156108f2576040516359fa4a9360e01b815260040160405180910390fd5b60068101805460ff1916600117905580546001600160a01b03908116600090815260046020908152604080832083905584549093168252819052908120905b8154811015610a1b5781818154811061094c5761094c611368565b600091825260209091206002600390920201015460ff1615610a095760018301546001600160a01b03166000908152602081905260409020825483908390811061099857610998611368565b6000918252602080832084546001818101875595855291909320600392830290930180549190920290920180546001600160a01b0319166001600160a01b0390931692909217825582810154928201929092556002918201549101805460ff909216151560ff199092169190911790555b80610a1381611394565b915050610931565b5081546001600160a01b039081166000908152600160208190526040808320549186018054851684528184209290925590548554915190841693919091169186917f81cadbce5e8bbec575348523b1d5eaf78a05f8aab3ed8ff0aa594ee04358d6bb9190a4505050565b33600090815260208190526040812090805b8254811015610b5e57836001600160a01b0316838281548110610abc57610abc611368565b60009182526020909120600390910201546001600160a01b0316148015610b085750828181548110610af057610af0611368565b600091825260209091206002600390920201015460ff165b15610b4c576000838281548110610b2157610b21611368565b60009182526020909120600390910201600201805460ff191691151591909117905560019150610b5e565b80610b5681611394565b915050610a97565b5080610b7d576040516337c5c3a360e21b815260040160405180910390fd5b6040516001600160a01b0384169033907fee943cdb81826d5909c559c6b1ae6908fcaf2dbc16c4b730346736b486283e8b90600090a3505050565b6002811015610bda5760405163aabd5a0960e01b815260040160405180910390fd5b6000610be5336111b2565b905080821115610c085760405163aabd5a0960e01b815260040160405180910390fd5b3360008181526001602052604090819020849055517fbb0549e0aedb1fcc6a27d802df340bb4bd5dc53b1f97f3736a879345232e6def90610c4c9085815260200190565b60405180910390a25050565b6000826001600160a01b038116610c825760405163e6c4247b60e01b815260040160405180910390fd5b826001600160a01b038116610caa5760405163e6c4247b60e01b815260040160405180910390fd5b836001600160a01b0316856001600160a01b031603610cdc5760405163e6c4247b60e01b815260040160405180910390fd5b6001600160a01b03851660009081526004602052604090205415610d135760405163372a886760e11b815260040160405180910390fd5b610d1d8533611029565b610d3a576040516377b6878160e11b815260040160405180910390fd5b6001600160a01b0385166000908152600160205260409020546002811015610d755760405163aabd5a0960e01b815260040160405180910390fd5b600360008154610d8490611394565b91829055506000818152600260208190526040822080546001600160a01b03808c166001600160a01b0319928316178355600183018054918c16919092161790559081018490556003810191909155426004820181905591955090610ded9062093a80906113ad565b6005820190815560068201805461ffff191690556001600160a01b03808916600081815260046020526040908190208990559254925191891692909188917f633611737e849bf540a78184cb988e50bee6df6e503d7318b21905f927930ce591610e5991815260200190565b60405180910390a45050505092915050565b6001600160a01b0381166000908152602081905260408120606091805b8254811015610edf57828181548110610ea357610ea3611368565b600091825260209091206002600390920201015460ff1615610ecd5781610ec981611394565b9250505b80610ed781611394565b915050610e88565b5060008167ffffffffffffffff811115610efb57610efb6113c0565b604051908082528060200260200182016040528015610f4657816020015b6040805160608101825260008082526020808301829052928201528252600019909201910181610f195790505b5090506000805b845481101561101e57848181548110610f6857610f68611368565b600091825260209091206002600390920201015460ff161561100c57848181548110610f9657610f96611368565b600091825260209182902060408051606081018252600390930290910180546001600160a01b0316835260018101549383019390935260029092015460ff161515918101919091528351849084908110610ff257610ff2611368565b6020026020010181905250818061100890611394565b9250505b8061101681611394565b915050610f4d565b509095945050505050565b6001600160a01b0382166000908152602081905260408120815b81548110156110d657836001600160a01b031682828154811061106857611068611368565b60009182526020909120600390910201546001600160a01b03161480156110b4575081818154811061109c5761109c611368565b600091825260209091206002600390920201015460ff165b156110c4576001925050506110dd565b806110ce81611394565b915050611043565b5060009150505b92915050565b6001600160a01b0382166000908152602081905260408120815b81548110156110d657836001600160a01b031682828154811061112257611122611368565b60009182526020909120600390910201546001600160a01b031614801561116e575081818154811061115657611156611368565b600091825260209091206002600390920201015460ff165b156111a05781818154811061118557611185611368565b906000526020600020906003020160010154925050506110dd565b806111aa81611394565b9150506110fd565b6001600160a01b038116600090815260208190526040812081805b8254811015611248578281815481106111e8576111e8611368565b600091825260209091206002600390920201015460ff16156112365782818154811061121657611216611368565b9060005260206000209060030201600101548261123391906113ad565b91505b8061124081611394565b9150506111cd565b509392505050565b60006020828403121561126257600080fd5b5035919050565b80356001600160a01b038116811461128057600080fd5b919050565b6000806040838503121561129857600080fd5b6112a183611269565b946020939093013593505050565b6000602082840312156112c157600080fd5b6112ca82611269565b9392505050565b600080604083850312156112e457600080fd5b6112ed83611269565b91506112fb60208401611269565b90509250929050565b602080825282518282018190526000919060409081850190868401855b8281101561135b57815180516001600160a01b03168552868101518786015285015115158585015260609093019290850190600101611321565b5091979650505050505050565b634e487b7160e01b600052603260045260246000fd5b634e487b7160e01b600052601160045260246000fd5b6000600182016113a6576113a661137e565b5060010190565b808201808211156110dd576110dd61137e565b634e487b7160e01b600052604160045260246000fdfea264697066735822122071b75e0687049b37f20149ac5bb421d5ff7dffd9ec889aa11fe0acb28d62699164736f6c63430008140033",
  "linkReferences": {},
  "deployedLinkReferences": {}
}